{
  "contractName": "pet_adoption_app",
  "abi": [
    {
      "constant": true,
      "inputs": [
        {
          "name": "",
          "type": "uint256"
        }
      ],
      "name": "adopters",
      "outputs": [
        {
          "name": "",
          "type": "address"
        }
      ],
      "payable": false,
      "stateMutability": "view",
      "type": "function"
    },
    {
      "constant": false,
      "inputs": [
        {
          "name": "pet_id",
          "type": "uint256"
        }
      ],
      "name": "adopt_pet",
      "outputs": [
        {
          "name": "",
          "type": "uint256"
        }
      ],
      "payable": false,
      "stateMutability": "nonpayable",
      "type": "function"
    },
    {
      "constant": false,
      "inputs": [],
      "name": "fetch_Adopters",
      "outputs": [
        {
          "name": "",
          "type": "address[12]"
        }
      ],
      "payable": false,
      "stateMutability": "nonpayable",
      "type": "function"
    }
  ],
  "bytecode": "0x608060405234801561001057600080fd5b5061026a806100206000396000f3fe6080604052600436106100565763ffffffff7c010000000000000000000000000000000000000000000000000000000060003504166343ae80d3811461005b57806358fcbfd5146100ae578063aeb49ed5146100ea575b600080fd5b34801561006757600080fd5b506100856004803603602081101561007e57600080fd5b5035610138565b6040805173ffffffffffffffffffffffffffffffffffffffff9092168252519081900360200190f35b3480156100ba57600080fd5b506100d8600480360360208110156100d157600080fd5b5035610162565b60408051918252519081900360200190f35b3480156100f657600080fd5b506100ff6101cb565b604051808261018080838360005b8381101561012557818101518382015260200161010d565b5050505090500191505060405180910390f35b600081600c811061014557fe5b015473ffffffffffffffffffffffffffffffffffffffff16905081565b60008082101580156101755750600b8211155b151561018057600080fd5b33600083600c811061018e57fe5b01805473ffffffffffffffffffffffffffffffffffffffff191673ffffffffffffffffffffffffffffffffffffffff929092169190911790555090565b6101d361021e565b6040805161018081019182905290600090600c9082845b815473ffffffffffffffffffffffffffffffffffffffff1681526001909101906020018083116101ea575050505050905090565b61018060405190810160405280600c90602082028038833950919291505056fea165627a7a723058208a68d7244687f4b0bfccfd08bfd8758b156421593c414eaef99eb4530b424e080029",
  "source": "pragma solidity 0.5.0;\n\ncontract pet_adoption_app {\n\n    address[12] public adopters;\n\n    // This function allows adopters to adopt a pet\n    function adopt_pet(uint pet_id) public returns (uint) {\n\n        //here we are making sure that pet_id that adopters wants if from the index 0 to 11\n        require(pet_id >= 0 && pet_id <= 11);\n        //here we set the address of the adopter as value using pet number as the index\n        adopters[pet_id] = msg.sender;\n        //finally returning pet selected number/index\n        return pet_id;\n    }\n    \n    //this function will return array adopters, \n    //it will used to check which pets are already adopted\n    function fetch_Adopters() public returns (address[12] memory) {\n        //this will return whole array and we can use it which index are filled with value\n        return adopters;\n    }\n}",
  "sourcePath": "C:/Users/Anil/Downloads/PetAdoptionAppBlockchain-master/contracts/pet_adoption_app.sol",
  "compiler": {
    "name": "solc",
    "version": "0.5.0+commit.1d4f565a.Emscripten.clang"
  },
  "schemaVersion": "3.3.4",
  "updatedAt": "2021-02-15T10:35:08.349Z",
  "networkType": "ethereum",
  "devdoc": {
    "methods": {}
  },
  "userdoc": {
    "methods": {}
  }
}